S0100000415474696E7938352E737265634E
S11300000EC01DC01CC01BC01AC030C018C017C011
S113001016C015C014C013C012C011C010C01124E2
S11300201FBECFE5D2E0DEBFCDBF20E0A0E6B0E04A
S113003001C01D92A836B207E1F702D0A5C0E0CFF7
S113004005D0789487B3806187BBFFCF8AB583627C
S11300508ABD83B7836083BF8EE788BD89B782601A
S113006089BF87B3826087BB789408951F920F92EB
S11300700FB60F921124CF92DF92EF92FF920F935B
S11300801F932F933F934F935F936F937F938F931C
S11300909F93AF93BF93EF93FF93C0906400D0906E
S11300A06500E0906600F090670080916000909198
S11300B06100A0916200B091630022E0C20ED11CE5
S11300C0E11CF11CBC01CD01605D7F4F8F4F9F4F40
S11300D028EE33E040E050E035D08901330F220BA5
S11300E0330BC00ED11EE21EF31EC0926400D092E8
S11300F06500E0926600F092670060936000709380
S11301006100809362009093630087B3806187BB32
S113011086B3806186BBFF91EF91BF91AF919F91B0
S11301208F917F916F915F914F913F912F911F918B
S11301300F91FF90EF90DF90CF900F900FBE0F9034
S11301401F901895A1E21A2EAA1BBB1BFD010DC01E
S1130150AA1FBB1FEE1FFF1FA217B307E407F50773
S113016020F0A21BB30BE40BF50B661F771F881F4F
S1130170991F1A9469F760957095809590959B01E5
S10F0180AC01BD01CF010895F894FFCF3D
S9030000FC
