S0100000415474696E7938352E737265634E
S11300000EC01DC01CC01BC01AC0ACC018C017C095
S113001016C015C014C013C012C011C010C01124E2
S11300201FBECFE5D2E0DEBFCDBF20E0A0E6B0E04A
S113003001C01D92A137B207E1F76AD063C1E0CFD6
S113004087B1816087B986B1846E86B987B38B7FA7
S113005087BB089544B125B130E0322F2227242BE9
S1130060FC013183208308958333910590F09C0132
S1130070265431092135310570F0275831092C34C3
S1130080310558F08D5191408234910540F484E05B
S1130090089581E0089582E0089583E0089580E062
S11300A00895CF93E1DFC82F80916800C81749F005
S11300B0C093680010926200109261008091670002
S11300C00AC064E170E081E690E0BED08111C09383
S11300D0670080916700CF910895E3DF90916000FD
S11300E0911105C0882319F08093600008958093CE
S11300F0600080E008951092680010926700E1E6C5
S1130100F0E0118210821282138214821582089503
S1130110CF93DF9300D0CDB7DEB714D091DFEBDF00
S1130120789487B3806187BBCE01019693DF898180
S11301309A81D3DF8823C1F38230B1F786B380611B
S113014086BBF2CF8AB583628ABD83B7836083BFDF
S11301508EE788BD89B7826089BF87B3826087BB19
S1130160789408951F920F920FB60F921124CF9294
S1130170DF92EF92FF920F931F932F933F934F932E
S11301805F936F937F938F939F93AF93BF93EF93FB
S1130190FF93C0906D00D0906E00E0906F00F090DF
S11301A070008091690090916A00A0916B00B091F9
S11301B06C0022E0C20ED11CE11CF11CBC01CD017B
S11301C0605D7F4F8F4F9F4F28EE33E040E050E05B
S11301D077D08901330F220B330BC00ED11EE21EE0
S11301E0F31EC0926D00D0926E00E0926F00F09208
S11301F070006093690070936A0080936B00909321
S11302006C00FF91EF91BF91AF919F918F917F917E
S11302106F915F914F913F912F911F910F91FF909B
S1130220EF90DF90CF900F900FBE0F901F90189516
S11302302FB7F89460916D0070916E0080916F00FB
S1130240909170002FBF0895CF92DF92EF92FF92AA
S11302500F931F93CF93DF93EC018B01E9DF288188
S11302603981232B51F46A837B838C839D8381E0C2
S113027090E09983888380E01AC0CA80DB80EC8098
S1130280FD809B01AC012C193D094E095F096901F0
S11302907A0120E030E0C016D106E206F30630F021
S11302A06A837B838C839D8381E001C080E0DF913E
S11302B0CF911F910F91FF90EF90DF90CF90089511
S11302C0A1E21A2EAA1BBB1BFD010DC0AA1FBB1F56
S11302D0EE1FFF1FA217B307E407F50720F0A21BC8
S11302E0B30BE40BF50B661F771F881F991F1A9435
S11302F069F760957095809590959B01AC01BD015F
S10B0300CF010895F894FFCF2A
S9030000FC
